:1000000002308A001C2A0000033083168600FB3071
:10001000870000308500811383128A110A12472A53
:10002000B101B001B501B401B301B2018A110A12E4
:10003000482A07110C309700B1017D30B000003024
:10004000F8000638920030088316920083123508B3
:10005000F9003408F800F90CF80CF90CF80CF90C5C
:1000600078089500F90C790C3039F7001708CF396A
:100070007704970008008316051083120514831671
:100080008510831285141030F700F70B4528000007
:1000900083168510831285100800CE014E08073C98
:1000A000031C732883160510831205101030F70007
:1000B000F70B582800004D1C622883168510831208
:1000C0008514662883168510831285108316051003
:1000D000831205141030F700F70B6C280000CE0ACD
:1000E0000310CD0C4E288316051083120510103016
:1000F000F700F70B79280000CF018518CF0ACF0849
:100100000319862883168510831285101030F70096
:10011000F70B882800008316051083120514103091
:10012000F700F70B912800008316051083120510C5
:100130001030F700F70B9A2800000800831605100E
:10014000831205101030F700F70BA4280000831667
:100150008510831285101030F700F70BAD280000D2
:1001600083160510831205141030F700F70BB6281C
:100170000000831685108312851408003B20460872
:100180008838C700CD004D209E208A110A124C2AC3
:100190003B204030CD004D209E203B20C030CD0084
:1001A0004D2026304807840083130008CC00CD0082
:1001B0004D2026304907840083130008CC00CD0071
:1001C0004D2026304A07840083130008CC00CD0060
:1001D0004D2026304B07840083130008CC00CD004F
:1001E0004D209E200800F801F901F701FA014D08A1
:1001F000031DFD284C08031917291030CE000310E9
:10020000CA0DCB0DF70DFA0D4D087A02031D0A2910
:100210004C087702031C13294C08F702031CFA034D
:100220004D08FA020314F80DF90DCE0BFF28080053
:100230008E30F7004708F8004608F900FA01F80880
:10024000031D2C297908F800F9010830F702F80895
:10025000031D2C29F70134290310F81B3329F90D4C
:10026000F80DF7032C29F81308004108CB004008CB
:10027000CA003F08C9003E08C800CF01CE012030A7
:10028000CD008230CC0048080319B329D0004C08B7
:100290000319B329D007031854297F30D002031C57
:1002A000B3290319B32958298130D0070318B3297A
:1002B0005008F700F801F901FA014908D400D417F1
:1002C0004A08D3004B08D2001830D000D101521C8C
:1002D00081294F08FA07031C7329F90A031D7329A2
:1002E000F80A0319D1174E08F907031C7A29F80AEE
:1002F0000319D1174D08CA00CA174A08F80703188E
:10030000D117D10DF80CF90CFA0CD40CD30CD20C7B
:100310000310D00B66290130F7070318B329F81B27
:100320009829D40DFA0DF90DF80DF7030319B32927
:10033000D41FA929FA0A031DA929F90A031DA9290D
:10034000F80A031DA929F80CF90CFA0CF70A03198D
:10035000B3294908D1004D08D106D11FB129F8179A
:10036000B729F813B729F701F801F901FA017A085A
:10037000C5007908C4007808C3007708C2003508B2
:10038000C7003408C6004708CB004608CA00CD01A4
:100390000A30CC00F3207708B8007A08B900470883
:1003A000CB004608CA00CD010A30CC00F320790802
:1003B000C9007808C8007908CB007808CA00CD01C8
:1003C0000A30CC00F3207708BA007A08BB0047084F
:1003D000CB004608CA00CD010A30CC00F3207908D2
:1003E000C9007808C8007908CB007808CA00CD0198
:1003F0000A30CC00F3207908BD007808BC00C801A1
:10040000C9013C08CA003A08CB00C82008004630A1
:1004100084008313000803191B2A0130F800F70138
:10042000F70B102AF80B0F2A4A30F700F70B162AA1
:10043000192A800B0D2A080003081F398300B70111
:10044000B601C101C001BF01BE01C501C401C301A4
:10045000C20183161F149F141F159F11831383124B
:10046000A001A1013F30A6000630A7005B30A80024
:100470004F30A9006630AA006D30AB007D30AC0073
:100480000730AD007F30AE006F30AF000428102879
:1004900019200730C600BE28C801C901CA01CB0116
:1004A000C8200618772A1430B4070318B50A192093
:1004B0000130B6070318B70A3708CB003608CA0060
:1004C000CD010530CC00F3207908FA007808C60089
:1004D0007908C70018217A08C1007908C000780897
:1004E000BF007708BE003521FA30C6000722861803
:1004F0009F2A1430B4020030031C0130B5021920C9
:1005000036080319B703B6033708CB003608CA000C
:10051000CD010530CC00F3207908FA007808C60038
:100520007908C70018217A08C1007908C000780846
:10053000BF007708BE003521FA30C6000722350813
:10054000003C0318AC2AFF3A031DAA2A3408F33CE6
:0C0550000318AC2AB501B401512A630065
:02400E003B3F36
:00000001FF
;PIC16F877
;CRC=A385  CREATED="14-nov.-18 10:54"
