:1000000000308A00D52800003230840083130008B5
:10001000031918280130F800F701F70B0D28F80B29
:100020000C284A30F700F70B13281628800B0A28F3
:100030008A110A12022983160510831205148316E9
:100040008510831285141030F700F70B2528000067
:1000500083168510831285100800B7013708073C06
:10006000031C532883160510831205101030F70067
:10007000F70B38280000361C42288316851083129F
:100080008514462883168510831285108316051063
:10009000831205141030F700F70B4C280000B70A44
:1000A0000310B60C2E28831605108312051010308D
:1000B000F700F70B59280000B8018518B80AB808EE
:1000C0000319662883168510831285101030F700F7
:1000D000F70B6828000083160510831205141030F2
:1000E000F700F70B71280000831605108312051026
:1000F0001030F700F70B7A2800000800831605106F
:10010000831205101030F700F70B842800008316C7
:100110008510831285101030F700F70B8D28000032
:1001200083160510831205141030F700F70B96287C
:100130000000831685108312851408001B204030B0
:10014000B6002D207E201B20C030B6002D2026308A
:100150003107840083130008B500B6002D20263037
:100160003207840083130008B500B6002D20263026
:100170003307840083130008B500B6002D20263015
:100180003407840083130008B500B6002D207E20BC
:100190008A110A120D291B2031088838B200B600D6
:1001A0002D207E208A110A12102903081F3983008E
:1001B00083161F149F141F159F1183138312A00110
:1001C000A1013F30A6000630A7005B30A8004F30E9
:1001D000A9006630AA006D30AB007D30AC0007305E
:1001E000AD007F30AE006F30AF000130B0000030A6
:1001F000831685008501831285010830B100FA302D
:10020000B2000428B10BFF280830B1000230B20060
:100210000330B3000430B4009E280730B100CB286F
:04022000102963003E
:02400E003B3F36
:00000001FF
;PIC16F877
;CRC=BC4D  CREATED="12-nov.-18 01:06"
